:1000000029C02EC0A7C02CC02BC02AC029C028C020
:1000100027C026C00000000000000001010102020C
:10002000030304050607080A0B0D0E101214161917
:100030001B1E2124272B2F32373B3F44494E535957
:100040005F656B72787F878E969EA7AFB8C1CBD560
:10005000DFE9F4FF11241FBECFE9CDBF7CD009C179
:10006000CFCF98E0C39A87FFC39800C0880FC3988A
:100070009150C1F70895982F26B3207180E030E0A9
:1000800046B3407150E04217530749F4981730F0D7
:10009000E0EFF0E03197F1F78F5FF2CF80E0089565
:1000A0000F931F93CF93DF93D8E00C2F10E015959B
:1000B0000795C02F8BE0DFDF833010F48FEF0BC08C
:1000C00085E1D9DF8330D0F38C3010F0C02FC068C9
:1000D000D15059F78C2FDF91CF911F910F91089537
:1000E0000F931F93CF93DF93B49B02C08FEF2DC06C
:1000F00084E6C1DF8823D1F387E3BDDF8332B0F329
:10010000CFDFC82FCDDFD82FCBDF182FC9DF082FC7
:100110008BE0B1DF833050F3802F90E0810F911D91
:100120008F3F91051CF32C2F30E04D2F50E0C9017B
:10013000840F951F8F3F910521F0542F4427242BC6
:10014000352B2A31310591F6812FDF91CF911F9107
:100150000F910895189580E888B98FE084BB81E0FD
:1001600085BD8BB780628BBFAC9A85B7877E806177
:1001700085BFBB9AC49A32E0F32E03E0C0E0EC2EB8
:10018000E00E8FEB8E1510F490E4E90EDD24DA9486
:100190008C2F90E0EC2FEF73F0E0EC5EFF4F1491AA
:1001A000FC01E095F095EF73FF27EC5EFF4FD491D3
:1001B00026E0959587952A95E1F78130910559F0CC
:1001C0008230910571F0892B91F4812F4ADF8D2FB8
:1001D00048DF80E00BC08D2F44DF80E042DF812FBD
:1001E00005C080E03EDF812F3CDF8D2F3ADFCF0D51
:1001F000C03C08F0C05CDA94D110CACFC0E5B49915
:100200002EC06EDF8330F9F0843019F1813039F57A
:10021000DFEF80E026DF80E024DF80E022DFD150C6
:10022000C1F78AB780628ABF789485B7806285BF3C
:10023000889585B78F7D85BFF894B499F2CF50DF4C
:10024000813079F70CC0000F0F5F083040F000E0FC
:1002500006C0F394F39487E08F1508F4F12C8FE532
:1002600099E00197F1F700C00000C15041F6CE2D92
:0602700086CFF894FFCFD9
:00000001FF
