:100000000AC019C02FC117C016C047C114C013C001
:1000100012C011C010C011271FBFCFE5D0E0DEBF56
:10002000CDBF20E0A0E4B0E001C01D93A334B2072F
:10003000E1F759D19AC1E4CF48E0109A87FF1098B0
:10004000880F41501098C9F708952F933F93CF938D
:10005000DF93CDB7DEB7282F862F342FEDDF822F29
:10006000EBDF832FDF91CF913F912F91E5CFCF939E
:10007000F894CFEF40E060E080E0E7DFC150D1F7D7
:100080007894CF910895482FE2E4F0E050818F7387
:1000900090E0E82FF92F052F01C0EE0F0A95EAF73F
:1000A0008FE390E001C0880F5A95EAF78E1B50E06D
:1000B00066E0559547956A95E1F74130510741F063
:1000C0004230510749F0452B59F440E06E2F07C0EC
:1000D0004E2F682F80E003C0482F60E08E2FB5CFF1
:1000E0000895119A819A909A4DE550E057BD46BD0A
:1000F0004BB542604BBD089541E0E0E4F0E0408341
:1001000040814113FDCF08953F93CF93DF93CDB747
:10011000DEB7C850D10B0FB7F894DEBF0FBFCDBF0D
:10012000019B02C08FEF93C0E7DFA1E4B0E04C91E8
:100130004E33C0F3E1DFE1E4F0E040814F3190F372
:1001400030E2CF5FDF4F4991599169917881C45076
:10015000D0407695679557954795CF5FDF4F499388
:10016000599369937883C450D040C6DFA1E4B0E0CE
:100170004C914423B9F2C0DFE1E4F0E04081442334
:1001800089F24081493088F0CF5FDF4F4991599122
:1001900069917881C450D0407068CF5FDF4F499338
:1001A000599369937883C450D040315051F6A4DFFD
:1001B000CF5FDF4F89919991A991B881C450D04008
:1001C0007B2F6A2F88279927CB5FDF4F699379931D
:1001D00089939883C850D040CF5FDF4F8991999120
:1001E000A991B881C450D0404B2F55276627772757
:1001F000CB5FDF4FA881C550D0408A2F90E0480FD9
:10020000591F4F3F51070CF48DCFCF5FDF4FB8819F
:10021000C150D0404B2F50E0642F752FCE5FDF4F81
:10022000E881C250D0406E0F711F6F3F710731F0EF
:10023000CF5FDF4F49915881C250D0404A315107BA
:1002400009F070CFCB5FDF4F8881C550D040C85FC9
:10025000DF4F0FB7F894DEBF0FBFCDBFDF91CF9157
:100260003F9108951F930F930FB70F9310E04F9393
:10027000EF93FF9348B5E1E4F0E0408319BD18BD6A
:100280004DE04DBDE0E4F0E01083FF91EF914F9120
:100290000F910FBF0F911F9118951F930F930FB7D9
:1002A0000F9310E0EF93FF931DBD19BD18BDE0E45F
:1002B000F0E01083E1E4F0E01083FF91EF910F9103
:1002C0000FBF0F911F911895D2DE909A4AB74160E7
:1002D0004ABF88954AB74E7F4ABF0199F6CF14DFCF
:1002E000813099F7089548ED4CBF16BF089AF9DEA2
:1002F0007894C3E0D0E03D2F3C0F303C08F0305CF8
:100300002FEFF8948D2FBFDE789442E04D0F403CE4
:1003100010F042E44D0F215011F0D42FF2CFD0E570
:10032000019918C0F1DE823031F0833071F08130F4
:1003300089F4CADF0FC0E2E4F0E040814F5F433050
:1003400010F4408307C0108305C0CC0FCF5FC830C6
:1003500008F0C0E04FEC57E041505040E9F700C0D2
:0E0360000000D150E9F6D32FC6CFF894FFCF9E
:00000001FF
