:1000000009C016C08FC014C013C012C011C010C0E8
:100010000FC00EC011241FBECFE9CDBF20E0A0E667
:10002000B0E001C01D92A136B207E1F77CD020C13B
:10003000E7CF98E0C39A87FFC39800C0880FC398A2
:100040009150C1F70895982F26B3207180E030E0D9
:1000500046B3407150E04217530749F4981730F007
:10006000E0EFF0E03197F1F78F5FF2CF80E0089595
:100070000F931F93CF93DF93D8E00C2F10E01595CB
:100080000795C02F8BE0DFDF833010F48FEF0BC0BC
:1000900085E1D9DF8330D0F38C3010F0C02FC068F9
:1000A000D15059F78C2FDF91CF911F910F91089567
:1000B0000F931F93CF93DF93B49B02C08FEF2DC09C
:1000C00084E6C1DF8823D1F387E3BDDF8332B0F359
:1000D000CFDFC82FCDDFD82FCBDF182FC9DF082FF8
:1000E0008BE0B1DF833050F3802F90E0810F911DC2
:1000F0008F3F91051CF32C2F30E04D2F50E0C901AC
:10010000840F951F8F3F910521F0542F4427242BF6
:10011000352B2A31310591F6812FDF91CF911F9137
:100120000F910895189580E888B98FE084BB81E02D
:1001300085BD8BB780628BBFAC9A85B7877E8061A7
:1001400085BFBB9AC49A32E0F32ED3E0C0E04FE300
:10015000C42ED12CBC2EBD0E2FEB2B1510F430E489
:10016000B30EAA24AA94809160000C2F0F73082E5E
:1001700001C0000F0A94EAF7960102C0220F331F54
:100180008A95E2F7E22EE01A8C2F90E026E0959512
:1001900087952A95E1F78130910559F082309105D4
:1001A00071F0892B91F4802F44DF8E2D42DF80E0A7
:1001B0000BC08E2D3EDF80E03CDF802F05C080E04D
:1001C00038DF802F36DF8E2D34DFCF0DC03C08F0B6
:1001D000C05CAA94A110C7CFC0E5B4993EC068DF47
:1001E000823021F120F48130C1F51FEF05C083304A
:1001F00041F1843061F131C080E01BDF80E019DF24
:1002000080E017DF1150C1F78AB780628ABF789407
:1002100085B7806285BF889585B78F7D85BFF89447
:10022000B499F2CF45DF813079F717C08091600033
:100230008F5F833018F4809360000FC010926000CD
:100240000CC0DD0FDF5FD83040F0D0E006C0F39483
:10025000F39437E03F1508F4F12C8FE599E001970E
:10026000F1F700C00000C15009F0B7CFCB2D72CF1D
:04027000F894FFCF30
:00000001FF
